:100000000C9427010C948E040C9467040C940D0539
:100010000C944F010C944F010C944F010C944F0120
:100020000C944F010C944F010C944F010C944F0110
:100030000C944F010C944F010C944F010C944F0100
:100040000C941D040C944F010C94DB040C94B50427
:100050000C944F010C944F010C944F010C944F01E0
:100060000C944F010C944F0153544F434B5F434F3B
:100070004E544558545F56332077696474685F75F1
:10008000733D33322064726F70733D31360020202F
:1000900073746F636B2D636F6E746578742073690E
:1000A0006C656E7420636F6E74726F6C3A204438A6
:1000B0002079656C6C6F77206576656E742063615E
:1000C0007074757265004D4F44453A204C49535445
:1000D000454E204F4E4C59202D2D206E6F742074AC
:1000E00072616E736D697474696E672C20737765C5
:1000F00065702066726F7A656E2E004D313030303B
:100100002049522070726F62652E204578706563B9
:1001100074696E672031372D206F722032322D6363
:10012000656C6C206275727374732061742039334E
:100130002E3735206D732E00207061796C6F6164ED
:100140003D0020776972655F636F6E74656E743D04
:10015000002A2A2A204C4F4E4745522042555253DE
:1001600054202D20706F737369626C652070726FFC
:1001700067726573733B20766572696679206F6E6E
:10018000207468652073636F7065202A2A2A005DD9
:1001900020204E4F20444154412D4C494E45204192
:1001A00043544956495459204F42534552564544A9
:1001B0000020737761703D0020696E766572743D32
:1001C0000020636C6F636B3D00757320656D69740F
:1001D0005F6C6174655F6D61783D002F0020646520
:1001E0006C61795F7265713D00206E616D653D00E7
:1001F00020205B636F6E74656E745F6964783D0088
:100200002063656C6C73202000627572737420002B
:1002100000000000250028002B0000000000240042
:1002200027002A0004040404040404040202020255
:1002300002020303030303030102040810204080A9
:100240000102040810200102040810208C07112468
:100250001FBECFEFD8E0DEBFCDBF11E0A0E0B1E020
:10026000E0E9F5E102C005900D92AA36B107D9F791
:1002700023E0AAE6B1E001C01D92A83AB207E1F777
:1002800011E0C7E2D1E004C02197FE010E94DB0724
:10029000C632D107C9F70E9494050C94C60A0C9483
:1002A0000000CF93DF9390E0FC01E85CFD4F2491C8
:1002B0008C5D9D4FFC0184918823D1F090E0880FE4
:1002C000991FFC01E65EFD4FA591B491FC01E05F32
:1002D000FD4FC591D49161110EC09FB7F8948C91D8
:1002E000E22FE0958E238C932881E223E8839FBF41
:1002F000DF91CF9108958FB7F894EC91E22BEC93B6
:100300008FBFF6CF3FB7F894809107039091080311
:10031000A0910903B0910A0326B5A89B05C02F3F01
:1003200019F00196A11DB11D3FBFBA2FA92F982F1B
:100330008827BC01CD01620F711D811D911D42E016
:10034000660F771F881F991F4A95D1F70895089562
:10035000AF92BF92CF92DF92EF92FF920F931F93D3
:10036000CF93DF936C017B018B01040F151FEB0111
:100370005E01AE18BF08C017D10759F06991D601C8
:10038000ED91FC910190F081E02DC6010995892B3A
:1003900079F7C501DF91CF911F910F91FF90EF90F9
:1003A000DF90CF90BF90AF900895FC01538D448DA6
:1003B000252F30E0842F90E0821B930B541710F010
:1003C000CF96089501970895FC01918D828D98171D
:1003D00061F0A28DAE0FBF2FB11D5D968C91928DF5
:1003E0009F5F9F73928F90E008958FEF9FEF089526
:1003F000FC01918D828D981731F0828DE80FF11DEF
:10040000858D90E008958FEF9FEF0895FC01918D09
:10041000228D892F90E0805C9F4F821B91098F7302
:10042000992708958BE093E00E94060221E0892B32
:1004300009F420E0822F089580E090E0892B29F0D4
:100440000E94120281110C9400000895FC01A48DF9
:10045000A80FB92FB11DA35ABF4F2C91848D90E0E6
:1004600001968F739927848FA689B7892C93A089C9
:10047000B1898C91837080648C93938D848D981353
:1004800006C00288F389E02D80818F7D80830895E6
:10049000EF92FF920F931F93CF93DF93EC0181E0D4
:1004A000888F9B8D8C8D98131AC0E889F98980817B
:1004B00085FF15C09FB7F894EE89FF896083E889AE
:1004C000F98980818370806480839FBF81E090E0A0
:1004D000DF91CF911F910F91FF90EF900895F62E2D
:1004E0000B8D10E00F5F1F4F0F731127E02E8C8DC7
:1004F0008E110CC00FB607FCFACFE889F98980810C
:1005000085FFF5CFCE010E942602F1CFEB8DEC0FD7
:10051000FD2FF11DE35AFF4FF0829FB7F8940B8F28
:10052000EA89FB8980818062CFCF0F931F93CF939D
:10053000DF938C01D0E0C0E0F801EC0FFD1F649167
:10054000662341F08BE093E00E944802892B11F072
:100550002196F2CFCE01DF91CF911F910F91089597
:10056000CF93DF93EC01888D8823B9F0AA89BB89EA
:10057000E889F9898C9185FD03C0808186FD0DC0D5
:100580000FB607FCF7CF8C9185FFF2CF808185FFF6
:10059000EDCFCE010E942602E9CFDF91CF910895E1
:1005A000CF92DF92EF92FF920F931F93CF938091A0
:1005B0006A01811138C0C9B10E94820120910103F2
:1005C0002223A9F00091FD021091FE022091FF026A
:1005D000309100036B017C01C01AD10AE20AF30AD0
:1005E000970186010C33110521053105E0F02091BA
:1005F0000103203A80F42091050130910601E09139
:10060000010341E04E0F40930103E20FF32FF11D70
:10061000C295C170C0836093FD027093FE02809307
:10062000FF0290930003CF911F910F91FF90EF90E5
:10063000DF90CF900895FC0101900020E9F73197F9
:10064000AF01481B590BBC018BE093E00C94A8014F
:100650008F929F92AF92BF920F931F93CF93DF938E
:10066000CDB7DEB7A1970FB6F894DEBF0FBECDBFF2
:1006700019A2423008F44AE08E010F5D1F4F842E0C
:10068000912CB12CA12CA50194010E94B907E62F51
:10069000B901CA01EA30F4F4E05DD801EE938D01AE
:1006A000232B242B252B79F790E080E0109719F06D
:1006B000CD010E941B03A1960FB6F894DEBF0FBEBA
:1006C000CDBFDF91CF911F910F91BF90AF909F90C1
:1006D0008F900895E95CE1CFCF93DF930E9495025C
:1006E000EC0189E191E00E941B038C0F9D1FDF91BB
:1006F000CF910895CF92DF92EF92FF920F931F93C5
:10070000CF93DF93CDB7DEB7C054D1090FB6F894BD
:10071000DEBF0FBECDBFF894E090B301F090B20100
:1007200040E050E0BA0180E090E0DC01EF14C1F05D
:10073000E091B30128E0E29FF0011124EE58FE4F52
:1007400080819181A281B381E091B30128E0E29F91
:10075000F0011124EE58FE4F448155816681778166
:1007600000917001109171017894EF1409F447C061
:100770007F936F935F934F93BF93AF939F938F93A9
:100780008CE191E09F938F931F9280E48F93CE0131
:1007900001969F938F930E94E1076C010FB6F89426
:1007A000DEBF0FBECDBF0197CF97C8F48BE093E0BB
:1007B0000E94D5018C159D0594F0A601BE016F5FC6
:1007C0007F4F8BE093E00E94A801F894EF1451F161
:1007D0008091B3018F5F87708093B3017894C05C80
:1007E000DF4F0FB6F894DEBF0FBECDBFDF91CF91C4
:1007F0001F910F91FF90EF90DF90CF90089501151A
:10080000110569F31F930F9383E491E09F938F93F6
:100810001F9280E48F93CE0101969F938F930E9445
:10082000E107BBCF8091700190917101801B910B0A
:100830009093710180937001D1CF1F920F920FB6E8
:100840000F9211242F933F938F939F93AF93BF9356
:100850008091030390910403A0910503B0910603D6
:100860003091020323E0230F2D3758F50196A11D87
:10087000B11D209302038093030390930403A0937C
:100880000503B09306038091070390910803A0919C
:100890000903B0910A030196A11DB11D80930703BE
:1008A00090930803A0930903B0930A03BF91AF91FB
:1008B0009F918F913F912F910F900FBE0F901F909E
:1008C000189526E8230F0296A11DB11DD2CF1F92C5
:1008D0000F920FB60F9211242F933F934F935F9374
:1008E0006F937F938F939F93AF93BF93EF93FF93F8
:1008F000E0910201F09103010995FF91EF91BF9101
:10090000AF919F918F917F916F915F914F913F91A7
:100910002F910F900FBE0F901F9018951F920F925E
:100920000FB60F9211242F933F934F935F936F93C2
:100930007F938F939F93AF93BF93EF93FF93E09138
:100940000001F09101010995FF91EF91BF91AF91E5
:100950009F918F917F916F915F914F913F912F91D7
:100960000F900FBE0F901F9018951F920F920FB609
:100970000F9211242F933F934F935F936F937F9325
:100980008F939F93AF93BF93EF93FF938BE093E08D
:100990000E942602FF91EF91BF91AF919F918F919D
:1009A0007F916F915F914F913F912F910F900FBE6B
:1009B0000F901F9018951F920F920FB60F9211244F
:1009C0002F938F939F93EF93FF93E0911B03F091ED
:1009D0001C038081E0912103F091220382FD1BC062
:1009E0009081809124038F5F8F732091250382175C
:1009F00041F0E0912403F0E0E55FFC4F958F809398
:100A00002403FF91EF919F918F912F910F900FBE33
:100A10000F901F9018958081F4CF1F920F920FB600
:100A20000F9211240F931F932F933F934F935F9334
:100A30006F937F938F939F93AF93BF93CF93EF93D6
:100A4000FF93C3B1C170809104018C1789F00E949B
:100A50008201C0930401C1111FC060936C017093A7
:100A60006D0180936E0190936F0181E080936B0123
:100A7000FF91EF91CF91BF91AF919F918F917F9116
:100A80006F915F914F913F912F911F910F910F9017
:100A90000FBE0F901F90189520916B01222341F3F8
:100AA00010926B012091B2012F5FA22FA7702091AD
:100AB000B3012A1310C080917001909171010196C9
:100AC000B9F280917001909171010196909371013A
:100AD00080937001CDCFE091B20128E0E29FF00158
:100AE0001124EE58FE4F60837183828393830091BB
:100AF0006C0110916D0120916E0130916F01E091B8
:100B0000B201AB01BC01401B510B620B730B88E0BF
:100B1000E89FF0011124EE58FE4F4483558366830D
:100B20007783A093B201A4CFCF93DF93CDB7DEB785
:100B3000C05AD1090FB6F894DEBF0FBECDBF78946E
:100B400084B5826084BD84B5816084BD85B58260D2
:100B500085BD85B5816085BD80916E008160809383
:100B60006E001092810080918100826080938100EC
:100B700080918100816080938100809180008160FC
:100B8000809380008091B10084608093B100809157
:100B9000B00081608093B00080917A00846080937F
:100BA0007A0080917A00826080937A0080917A0046
:100BB000816080937A0080917A00806880937A00C7
:100BC0001092C100E0911B03F0911C0382E080832E
:100BD000E0911703F09118031082E0911903F0914E
:100BE0001A0380E1808310922303E0911F03F091A8
:100BF000200386E08083E0911D03F0911E03808135
:100C000080618083E0911D03F0911E0380818860E4
:100C10008083E0911D03F0911E03808180688083B2
:100C2000E0911D03F0911E0380818F7D808360E041
:100C300082E00E94510160E084E00E94510161E085
:100C400085E00E94510161E086E00E94510160E070
:100C500088E00E945101D89A83B181708093040189
:100C600080916B00816080936B008091680081604F
:100C700080936800E9E2F2E0E491F0E0EE0FFF1FFC
:100C8000E05FFD4FA591B491B093B901A093B80175
:100C9000EAE2F2E0E491F0E0EE0FFF1FE05FFD4FCB
:100CA000259134913093B7012093B601EDE3F2E042
:100CB00084918093B501EEE3F2E0E491E093B40116
:100CC0009C91809589238C93D9018C91E095E823A0
:100CD000EC9380ED92E0909301018093000180916C
:100CE0006900836080936900E89A8BEF90E00E942E
:100CF0006C0386EC90E00E946C038EE890E00E940A
:100D00006C0388E690E00E946C03FE0131967F013F
:100D100020E0A22E20E0B22EF894D0900103409063
:100D2000FD025090FE026090FF02709000037894E4
:100D300011E04C9911C010E01093FC02D1101CC0BE
:100D40000E947A03A114B10439F30E94120288238D
:100D500019F30E940000E0CF8091FC028111ECCFDA
:100D60008091FA029091FB0201969093FB0280938E
:100D7000FA020E948201E0CF0E9482016419750983
:100D8000860997096039714081059105D8F2F89478
:100D900010910103209105013091060182E02A356E
:100DA0003807A9F08AE592E0909306018093050147
:100DB000109201037894F70190E080E0811750F4DD
:100DC000D901A80FB91F4C9141930196F7CF8AEB37
:100DD00091E0EACF89E092E00E949502612F70E0F5
:100DE00090E080E04AE00E94280380E092E00E94C8
:100DF000950267018C2D8E19811758F4D6018D91BB
:100E00006D0160E3811161E38BE093E00E94480291
:100E1000F1CF80EF91E00E9495024AE061E070E03E
:100E200080E090E00E94280389EE91E00E94950204
:100E30008CE591E00E941B0382E491E00E94950200
:100E40004AE060E070E0CB010E94280388E391E073
:100E50000E9495026DE28BE093E00E9448028DEDC6
:100E600091E00E9495024AE064EF71E080E090E03A
:100E70000E9428038BED91E00E9495024AE060E019
:100E800070E0CB010E94280389EC91E00E9495025A
:100E90004AE060E070E0CB010E94280381EC91E021
:100EA0000E9495024AE060E070E0CB010E942803B6
:100EB00088EB91E00E9495024AE060E070E0CB018F
:100EC0000E94280381EB91E00E9495024AE060E0D5
:100ED00070E0CB010E9428038091FA029091FB02FE
:100EE000892BA1F48FE891E00E94950289E191E0BD
:100EF0000E941B031092FB021092FA021F3108F4A9
:100F00001FCF81E591E00E946C031ACF6DE58BE065
:100F100093E00E944802EACFEBE0F3E013821282F2
:100F200088EE93E0A0E0B0E084839583A683B78346
:100F30008BE091E09183808385EC90E095878487B6
:100F400084EC90E09787868780EC90E0918B808B93
:100F500081EC90E0938B828B82EC90E0958B848B7C
:100F600086EC90E0978B868B118E128E138E148EEA
:100F70000895A1E21A2EAA1BBB1BFD010DC0AA1FDA
:100F8000BB1FEE1FFF1FA217B307E407F50720F0F2
:100F9000A21BB30BE40BF50B661F771F881F991F6D
:100FA0001A9469F760957095809590959B01AC01B6
:100FB000BD01CF010895EE0FFF1F0590F491E02DC4
:100FC0000994AEE0B0E0E7EEF7E00C949D0A0D89DD
:100FD0001E898F89988D26E02C831A83098397FFB9
:100FE00002C080E090E801979E838D83AE01455E4C
:100FF0005F4F698D7A8DCE0101960E9411084D8157
:101000005E8157FD0AC02F813885421753070CF4C3
:101010009A01020F131FF80110822E96E4E00C943F
:10102000B90AABE0B0E0E7E1F8E00C948F0A7C018C
:101030003B018A01FC0117821682838181FFC8C1AE
:10104000CE0101965C01F7019381F30193FD859137
:1010500093FF81913F01882309F453C1853239F40C
:1010600093FD859193FF81913F01853229F4B7016A
:1010700090E00E94010AE7CF912C212C312CFFE156
:10108000F31538F08B3211F190F4803209F183328C
:1010900029F137FC3CC020ED280F2A3050F536FEF0
:1010A00020C08AE0989E200D1124922E06C08D3219
:1010B00091F0803371F7689430F8F30193FD8591D6
:1010C00093FF81913F018111DACF21C0689431F8FB
:1010D000689432F8F2CF689433F8EFCF689434F81C
:1010E000ECCFEAE02E9E200D1124222E689435F8D4
:1010F000E4CF8E3229F436FC04C1689436F8DDCF93
:101100008C3619F4689437F8D8CF8836B1F2982F16
:101110009F7D95549330E0F08336A1F18337C1F180
:10112000833509F063C02801F2E04F0E511CF8012D
:10113000C080D180692D70E036FC02C06FEF7FEF78
:10114000C6010E94EB094C01689437F882010AC07D
:101150000C5F1F4FFFE3F98388248394912C650172
:10116000E89437F833FE2DC0522C8114910471F5A8
:10117000552009F468CFB70180E290E00E94010A8F
:101180005A94F6CFF801808189830E5F1F4FE4CF18
:101190002801F2E04F0E511CF801C080D180692D6A
:1011A00070E036FC02C06FEF7FEFC6010E94F609C7
:1011B0004C018201D5CFB70180E290E00E94010A84
:1011C0002A942814190409F0B0F7CECFF60137FCA1
:1011D000859137FE81916F01B70190E00E94010A6D
:1011E00051105A94F1E08F1A9108BFCF843619F04C
:1011F000893609F077C0F80137FE6BC060817181D4
:10120000828193810C5F1F4FF32DFF763F2E97FF56
:1012100009C090958095709561957F4F8F4F9F4F36
:10122000689437F82AE030E0A5010E94310AC82E00
:10123000CA188C2C432C36FE0CC0E89440F8C91414
:1012400040F434FE05C032FC03C0F32DFE7E4F2E69
:10125000892C44FE95C0FE01EC0DF11D8081803388
:1012600009F087C0242D297E422E842D8870582EA7
:1012700043FC95C040FE8FC09C2C821418F42C0CAB
:10128000922C981844FE91C0B70180E390E00E9430
:10129000010A42FE09C088E790E041FE02C088E5ED
:1012A00090E0B7010E94010AC91408F48AC0CA94E8
:1012B000D12C9FEFC91AD90ACA0CDB1CF601829106
:1012C0006F01B70190E00E94010AAC14BD04B1F7B0
:1012D0004FCF60817181072E000C880B990B0E5F38
:1012E0001F4F92CFD32CE894D4F82AE030E0853712
:1012F00039F1232D297FD22E8F3601F148F488351C
:10130000A9F0F701868197812B96E2E10C94AB0A54
:10131000803749F08837A9F7D4FE02C06894D2F824
:1013200020E130E00DC06894D4F8F6CF34FE03C05D
:10133000822F8660D82E20E132E002C028E030E023
:10134000F801D7FE0FC060817181828193810C5FAB
:101350001F4FA5010E94310AC82ECA183D2CE894DF
:1013600037F867CF6081718190E080E00E5F1F4F9A
:10137000F0CF42FC02C0839478CF8394839475CFDE
:10138000842D867809F471CFF6CFB70180E290E022
:101390000E94010A83948214C0F3512C73CF522C03
:1013A0005818821408F46ECFF8CF842D867809F48B
:1013B0007BCF8BE241FE80E247FC8DE2B70190E0FB
:1013C00071CFB70180E390E00E94010A9A946CCF3C
:1013D0008FEF9FEF99CFFC01059061507040011095
:1013E000D8F7809590958E0F9F1F0895FC0161504E
:1013F000704001900110D8F7809590958E0F9F1F37
:1014000008950F931F93CF93DF93182F092FEB01AC
:101410008B8181FD09C01FEF0FEF812F902FDF918E
:10142000CF911F910F91089582FF14C02E813F81AB
:101430008C819D81281739073CF4E881F981CF011F
:1014400001969983888310838E819F8101969F8363
:101450008E83E3CFE885F985812F0995892BA1F348
:10146000DACFFA01AA27283051F1203181F1E8942E
:101470006F936E7F6E5F7F4F8F4F9F4FAF4FB1E087
:101480003ED0B4E03CD0670F781F891F9A1FA11D82
:10149000680F791F8A1F911DA11D6A0F711D811D83
:1014A000911DA11D20D009F468943F912AE0269F48
:1014B00011243019305D3193DEF6CF010895462FA7
:1014C0004770405D4193B3E00FD0C9F7F6CF462F88
:1014D0004F70405D4A3318F0495D31FD40524193F1
:1014E00002D0A9F7EACFB4E0A695979587957795AE
:1014F0006795BA95C9F700976105710508959B0135
:10150000AC010A2E06945795479537952795BA95BD
:10151000C9F7620F731F841F951FA01D08952F9296
:101520003F924F925F926F927F928F929F92AF9273
:10153000BF92CF92DF92EF92FF920F931F93CF93C0
:10154000DF93CDB7DEB7CA1BDB0B0FB6F894DEBF57
:101550000FBECDBF09942A88398848885F846E847D
:101560007D848C849B84AA84B984C884DF80EE80C7
:10157000FD800C811B81AA81B981CE0FD11D0FB6D0
:10158000F894DEBF0FBECDBFED010895F894FFCFF4
:10159000A701A701015A02000000004802A801D5D6
:1015A00001B0020602E401F8010D0A0023205354A1
:1015B0004F434B5F59454C4C4F5720726973655FE1
:1015C00075733D256C75206C6F775F75733D256C69
:1015D000750A00232053544F434B5F59454C4C4FE1
:1015E000575F44524F50532025750A00666C61675F
:0A15F0002B303368206563686F003C
:00000001FF
