:020000040000FA
:100000000C940B020C945D0A0C94360A0C94DC0AD6
:100010000C9433020C9433020C9433020C9433028C
:100020000C9433020C9433020C9433020C9433027C
:100030000C9433020C9433020C9433020C9433026C
:100040000C94EC090C9433020C94AA0A0C94840AC4
:100050000C9433020C9433020C9433020C9433024C
:100060000C9433020C94330253544F434B5F52456C
:10007000504C595F45564552595F4E3D00206465CE
:100080006C61795F75733D0020636F6E74656E748B
:100090005F6964783D0020706F6C3D00207068617E
:1000A00073653D0053544F434B5F464958454420C8
:1000B000666C61673D0053544F434B5F5A45524F46
:1000C0005F5041594C4F41443D0053544F434B5FA7
:1000D0005041594C4F414430375F544F30363D000A
:1000E00053544F434B5F5041594C4F414430305F64
:1000F000544F38303D0053544F434B5F50524546A8
:1001000049585F425954453D002D2D0053544F43EB
:100110004B5F434C4F53455F425954453D0020636C
:100120006C6F73653D0020776972655F73747566E7
:10013000663D0053544F434B5F4652414D494E4735
:100140002073747566665F6366673D002064617442
:100150005F696E763D0020636C6B5F696E763D0073
:1001600053544F434B5F545820737761703D005395
:10017000544F434B5F434F4E544558545F563320C2
:1001800077696474685F75733D33322064726F7091
:10019000733D31360053544F434B5F434F4E5445EC
:1001A00058545F4556454E54533A2044382079659B
:1001B0006C6C6F772070756C7365207769647468F8
:1001C000733B20443720756E757365640020206191
:1001D000786973203D20636F6E74656E74202866A5
:1001E0006C6167202F20666C61672B303368202F8D
:1001F000206F70656E20747970652D322061636B9D
:1002000029004D4F44453A205258204E4152524FFA
:1002100057202D2D20666C61672066697865642003
:10022000746F2037452C206F6E65206178697320CC
:100230007661726965642E004D313030302049524C
:100240002070726F62652E20457870656374696EE8
:10025000672031372D206F722032322D63656C6C30
:10026000206275727374732061742039332E3735B0
:10027000206D732E00207061796C6F61643D0020E9
:10028000776972655F636F6E74656E743D002A2ACC
:100290002A204C4F4E474552204255525354202D50
:1002A00020706F737369626C652070726F6772651E
:1002B00073733B20766572696679206F6E2074686F
:1002C000652073636F7065202A2A2A005D20204E06
:1002D0004F20444154412D4C494E452041435449FF
:1002E00056495459204F42534552564544002074B4
:1002F000785F73746172745F75733D00206669780E
:1003000065643D00206461745F696E763D00206322
:100310006C6B5F696E763D0020737761703D0020E5
:100320007265706C795F73656E743D0020656D69F0
:10033000745F6170706C6965645F6C6174655F6D3A
:1003400061783D00757320656D69745F6C617465DB
:100350005F6D61783D002F002064656C61795F728C
:1003600065713D0020636C6F73653D002077697295
:10037000655F73747566663D002073747566665FAD
:100380006366673D0020636F6E74656E745F6964B9
:10039000783D002F3863656C6C20706F6C3D0020D9
:1003A000706861736528646174612D636C6F636B41
:1003B000293D0020776972655F666C61673D0020AA
:1003C000205B666C61673D002063656C6C73202068
:1003D0000062757273742000000000002500280080
:1003E0002B0000000000240027002A00040404045D
:1003F00004040404020202020202030303030303CF
:1004000001020408102040800102040810200102AB
:1004100004081020981011241FBECFEFD8E0DEBFD3
:10042000CDBF11E0A0E0B1E0E2E1F8E202C005904A
:100430000D92A238B107D9F724E0A2E8B1E001C0DB
:100440001D92AF38B207E1F712E0CBE0D2E004C072
:100450002197FE010E940611CA30D107C9F70E94F8
:10046000630B0C9407140C940000CF93DF9390E07F
:10047000FC01E050FC4F249184519C4FFC0184917D
:100480008823D1F090E0880F991FFC01EE51FC4FBA
:10049000A591B491FC01E852FC4FC591D491611132
:1004A0000EC09FB7F8948C91E22FE0958E238C9329
:1004B0002881E223E8839FBFDF91CF9108958FB712
:1004C000F894EC91E22BEC938FBFF6CF3FB7F89402
:1004D0008091E9039091EA03A091EB03B091EC03C2
:1004E00026B5A89B05C02F3F19F00196A11DB11D8F
:1004F0003FBFBA2FA92F982F8827BC01CD01620FCB
:10050000711D811D911D42E0660F771F881F991F85
:100510004A95D1F708950895AF92BF92CF92DF9296
:10052000EF92FF920F931F93CF93DF936C017B01A8
:100530008B01040F151FEB015E01AE18BF08C01739
:10054000D10759F06991D601ED91FC910190F081AC
:10055000E02DC6010995892B79F7C501DF91CF916F
:100560001F910F91FF90EF90DF90CF90BF90AF90D1
:100570000895FC01538D448D252F30E0842F90E0A9
:10058000821B930B541710F0CF960895019708958E
:10059000FC01918D828D981761F0A28DAE0FBF2F57
:1005A000B11D5D968C91928D9F5F9F73928F90E0AD
:1005B00008958FEF9FEF0895FC01918D828D98171C
:1005C00031F0828DE80FF11D858D90E008958FEF59
:1005D0009FEF0895FC01918D228D892F90E0805C22
:1005E0009F4F821B91098F739927089582EF93E0A3
:1005F0000E94EA0221E0892B09F420E0822F08956D
:1006000080E090E0892B29F00E94F60281110C9481
:1006100000000895FC01A48DA80FB92FB11DA35AA5
:10062000BF4F2C91848D90E001968F739927848F12
:10063000A689B7892C93A089B1898C918370806435
:100640008C93938D848D981306C00288F389E02DD6
:1006500080818F7D80830895EF92FF920F931F9387
:10066000CF93DF93EC0181E0888F9B8D8C8D981365
:100670001AC0E889F989808185FF15C09FB7F89471
:10068000EE89FF896083E889F989808183708064BD
:1006900080839FBF81E090E0DF91CF911F910F9108
:1006A000FF90EF900895F62E0B8D10E00F5F1F4F17
:1006B0000F731127E02E8C8D8E110CC00FB607FC26
:1006C000FACFE889F989808185FFF5CFCE010E94B4
:1006D0000A03F1CFEB8DEC0FFD2FF11DE35AFF4F15
:1006E000F0829FB7F8940B8FEA89FB898081806242
:1006F000CFCF682F82EF93E00C942C030F931F93BE
:10070000CF93DF938C01D0E0C0E0F801EC0FFD1F28
:100710006491662341F082EF93E00E942C03892BC1
:1007200011F02196F2CFCE01DF91CF911F910F9161
:100730000895CF93DF93EC01888D8823B9F0AA89BF
:10074000BB89E889F9898C9185FD03C0808186FD8C
:100750000DC00FB607FCF7CF8C9185FFF2CF8081DB
:1007600085FFEDCFCE010E940A03E9CFDF91CF9143
:100770000895E0917802F09179029081809175025C
:10078000809589238083E0917602F09177029081B1
:1007900080917402809589238083089521E090914F
:1007A0008902911101C020E090918B02992361F0A0
:1007B00090917502E0917802F0917902281759F032
:1007C0008081982B9083089590917402E091760235
:1007D000F0917702F3CF808190959823F3CF21E0B9
:1007E00090918A02911101C020E090918B0299238F
:1007F00061F090917402E0917602F09177022817EF
:1008000059F08081982B9083089590917502E09122
:100810007802F0917902F3CF808190959823F3CFFD
:10082000CF92DF92EF92FF920F931F936A017B01A9
:1008300091E09093F103811104C081E00E94CE0306
:1008400004C0813031F50E94EF030E946602DC0192
:10085000CB018C199D09AE09BF090091ED031091E0
:10086000EE032091EF033091F003081719072A07D0
:100870003B0744F48093ED039093EE03A093EF03C2
:10088000B093F0031F910F91FF90EF90DF90CF9006
:100890000895823011F480E0D6CF80E0CFCF8F92E0
:1008A0009F92AF92BF92CF92DF92EF92FF920F93FF
:1008B00069017A01C60ED71EE81EF91E0E94660263
:1008C000DC01CB018C199D09AE09BF09B7FDF6CF3C
:1008D00080908F0290909002A0909102B09092022E
:1008E00088169906AA06BB0644F480938F0290935B
:1008F0009002A0939102B0939202B701A601802FBB
:100900000F91FF90EF90DF90CF90BF90AF909F90AE
:100910008F900C9410042F923F924F925F926F929F
:100920007F928F929F92AF92BF92CF92DF92EF927F
:10093000FF920F931F93CF93DF93CDB7DEB76697E8
:100940000FB6F894DEBF0FBECDBF6B017C01142F34
:1009500030907B02230D222E240EA09107010A2E37
:10096000000CBB0B2AE730E00E941B1128E030E0AE
:1009700040E050E00E94E71029013A011092730212
:1009800010928F0210929002109291021092920295
:100990001092ED031092EE031092EF031092F00309
:1009A00080918A02811105C080918902882309F40F
:1009B00040C0D701C6014E96A11DB11D11111AC02C
:1009C000332081F09091CB0180918D02981751F0E6
:1009D000D301C2014E96A11DB11D8E319105A10515
:1009E000B10524F08EE190E0A0E0B0E08C0D9D1DFB
:1009F000AE1DBF1DAC01BD014C195D096E097F091B
:100A00004C015D0120E1821A9108A108B10877FD2F
:100A100002C0460157010E946602681979098A09D5
:100A20009B0997FDF8CF80E00E94CE0380E00E94F2
:100A3000EF03D301C2014E96A11DB11D8B839C8390
:100A4000AD83BE83A301920126593F4F4F4F5F4FA5
:100A50002F83388749875A874F97A105B10508F03A
:100A600091C0260137011A821982A12EB12C8981E9
:100A7000821508F05BC08117E8F080917B028A0D37
:100A80009B2D911D49815A81481759079CF4FA0101
:100A9000EA19FB09E553FE4F908180918D0298176A
:100AA00049F000E02B813C814D815E81C301B201A0
:100AB0000E944F0401E02EE130E040E050E0C3012D
:100AC000B2010E944F048F819885A985BA858B3524
:100AD0009105A105B105DCF403E09C01AD01C30162
:100AE000B2010E944F0402E02BE530E040E050E00C
:100AF000C301B2010E944F04A981BA811196BA8341
:100B0000A983BAE74B0E511C611C711CB0CF02E0E7
:100B10002BE530E040E050E0C301B2010E944F04F9
:100B200003E02F81388549855A85E2CF222D30E0B8
:100B3000AAE7B0E00E940C11C60ED71EE81EF91EEF
:100B40000E9466026C197D098E099F0997FDF8CFF6
:100B500066960FB6F894DEBF0FBECDBFDF91CF9182
:100B60001F910F91FF90EF90DF90CF90BF90AF90CB
:100B70009F908F907F906F905F904F903F902F90BD
:100B80000C94B903E0E14E1A510861087108FEE1C6
:100B90004F1651046104710408F071C046015701F9
:100BA0001C861B86212F30E03A832983230D311DBB
:100BB00038872F838B85821508F04EC0811798F0F7
:100BC0004B855C85AF81B8854A175B0764F4FA01F1
:100BD00029813A81E21BF30BE553FE4F208190916E
:100BE0008D022913C0C1312C811106C001E02EE114
:100BF00030E040E050E017C003E0A3019201C501DE
:100C0000B4010E944F0401E02EE130E040E050E0EA
:100C1000C501B4010E944F04332049F000E02B814C
:100C20003C814D815E81C501B4010E944F0402E008
:100C30002BE530E040E050E0C501B4010E944F04D4
:100C40004B855C854F5F5F4F5C874B875AE7850E0E
:100C5000911CA11CB11CAECF222009F479CF222D0A
:100C600030E0AAE7B0E00E940C116C0D7D1D8E1DD6
:100C70009F1D03E0A30192010E944F0469CF198ACE
:100C800082E0382E03E0812F90E09C878B87E091F3
:100C90007302EA8BE11116C0F989F215B8F0222D22
:100CA00030E0AAE7B0E00E940C11C60ED71EE81E85
:100CB000F91E0E9466026C197D098E099F0997FD35
:100CC000F8CF46CF2989221508F059C04989242F29
:100CD00030E0AAE7B0E00E940C114B015C018C0CE3
:100CE0009D1CAE1CBF1C8B819C81AD81BE818F3150
:100CF0009105A105B10524F08EE190E0A0E0B0E0FF
:100D00009C01AD01280D391D4A1D5B1D2B8B3C8BB1
:100D10004D8B5E8B2BE432E0198240E050E0BA014B
:100D2000EA89F981EF17C9F0D9014D905D906D9076
:100D30007C90FF2351F0D301C201841B950BA60BBD
:100D4000B70BB7FD02C02A013B0199819F5F9983D0
:100D50002B5F3F4FB301A201E3CFEA89EE23D9F124
:100D60008B899C89AD89BE89841B950BA60BB70B1B
:100D7000AC01BD01141615061606170664F5ABE4A2
:100D8000B2E091E080E0482F50E0EA89F5E09E175C
:100D900008F0A3C0F49F9001F59F300D1124255B4E
:100DA0003D4FF90180809180A280B38015964D91CE
:100DB0005D916D917C91189784169506A606B706ED
:100DC00009F482C0481959096A097B0977FD83C073
:100DD0009F5F1596D8CF9989911778F1292F30E028
:100DE00040917B02AB85BC85A40FB11D2A173B0740
:100DF00024F5EB85FC852E1B3F0BF901E553FE4FD7
:100E0000208190918D022917C1F099819F5F909365
:100E1000730225E03981239FF0011124E55BFD4F2A
:100E20008B819C81AD81BE81880D991DAA1DBB1D42
:100E300080839183A283B3831482E091730245E09F
:100E40004E9FD0011124A55BBD4FB501A401425EA8
:100E50005F4F6F4F7F4F4D935D936D937C931397CF
:100E600051E014965C93A1E0AE0F65E06A9FD0015B
:100E70001124A55BBD4FB501A401455A5F4F6F4FCB
:100E80007F4F4D935D936D937C93139714963C9293
:100E900083E08E0F80937302EE5F85E08E9FF001FA
:100EA0001124E55BFD4F2F81388549855A85820ED7
:100EB000931EA41EB51E80829182A282B3820483F7
:100EC00039893F5F398BE3CE19964C91199724816C
:100ED000421708F07DCF892F7BCF8F9FD00111243F
:100EE000A55BBD4F8D909D90AD90BC9013971496CF
:100EF0007C90EA89E150E0937302F49FD001F59F62
:100F0000B00D1124A55BBD4FFE9FF0011124E55BE0
:100F1000FD4F85E001900D928A95E1F70E946602EF
:100F2000DC01CB0188199909AA09BB09B7FDF6CFE5
:100F300040918F02509190026091910270919202C3
:100F4000481759076A077B0744F480938F029093F0
:100F50009002A0939102B0939202B501A401872D53
:100F60000E94100494CE33243394811145CE01E0C5
:100F70002EE130E040E050E0C501B4010E944F0492
:100F80004DCE8093880240938702962FADE7B2E062
:100F9000FB0181918D938E2F891B8417D0F30895C7
:100FA000E0917B02E7FD08C091E09E0F90937B02E9
:100FB000F0E0E553FE4F80830895CF92DF92EF92E9
:100FC000FF920F931F93CF93DF937B0107E010E015
:100FD000C82ED12CD0910501DD2361F0F70180816D
:100FE000853041F481E0D13009F480E00E94D007DF
:100FF000F7011082C601002E02C0959587950A94CC
:10100000E2F7C82FC1708C2F0E94D007DD2331F08A
:10101000D13081F4C11110C0F701C0830150110912
:10102000C8F6DF91CF911F910F91FF90EF90DF9065
:10103000CF900895C11105C0F7018081C1E0C80FAC
:10104000EBCFC0E0E9CF0F931F93CF93DF93E091F5
:101050008C02F0E0ED5CFE4F0081C7E0D0E010E0D4
:10106000C8010C2E02C0959587950A94E2F781700D
:101070000E94D0072197A0F7DF91CF911F910F9188
:101080000895CF93DF93EC0190910501992351F0DE
:101090008881853039F481E0913009F480E00E9444
:1010A000D0071882DF91CF910C942308CF92DF9262
:1010B000EF92FF920F931F93CF938091F1038111D1
:1010C00038C0C9B10E9466022091E3032223A9F02F
:1010D0000091DF031091E0032091E1033091E203DE
:1010E0006B017C01C01AD10AE20AF30A970186015A
:1010F0000C33110521053105E0F02091E303203A7E
:1011000080F42091090130910A01E091E30341E06C
:101110004E0F4093E303E20FF32FF11DC295C17010
:10112000C0836093DF037093E0038093E1039093A7
:10113000E203CF911F910F91FF90EF90DF90CF903E
:1011400008958F929F92AF92BF920F931F93CF9368
:10115000DF93CDB7DEB7A1970FB6F894DEBF0FBE11
:10116000CDBF19A2423008F44AE08E010F5D1F4F37
:10117000842E912CB12CA12CA50194010E94C510A4
:10118000E62FB901CA01EA3044F5E05DD801EE93DB
:101190008D01232B242B252B79F790E080E01097ED
:1011A00069F0FD0101900020E9F73197AF014A1B7A
:1011B0005B0BBD0182EF93E00E948C02A1960FB6FB
:1011C000F894DEBF0FBECDBFDF91CF911F910F917D
:1011D000BF90AF909F908F900895E95CD7CF462F36
:1011E000682F70E090E080E00C94A108CF92DF922D
:1011F000EF92FF92CF93DF936C01092E000CEE0863
:10120000FF086A307105D1F44AE097FF18C08DE2FB
:101210000E947903EC0166277727CB016C197D09C1
:101220008E099F094AE00E94A1088C0F9D1FDF9143
:10123000CF91FF90EF90DF90CF900895462FC70198
:10124000B601DF91CF91FF90EF90DF90CF900C949B
:10125000A10842E050E06EE371E082EF93E00C946D
:101260008C02CF93DF930E947E03EC010E94290938
:101270008C0F9D1FDF91CF910895CF93DF930E9434
:10128000F608EC010E9429098C0F9D1FDF91CF9178
:101290000895CF92DF92EF92FF920F931F93CF9317
:1012A000DF93CDB7DEB7C054D1090FB6F894DEBFD7
:1012B0000FBECDBFF894E090CA01F090C90140E0A4
:1012C00050E0BA0180E090E0DC01EF14C1F0E09161
:1012D000CA0128E0E29FF0011124E757FE4F808108
:1012E0009181A281B381E091CA0128E0E29FF001DF
:1012F0001124E757FE4F4481558166817781009123
:101300008701109188017894EF1409F447C07F9306
:101310006F935F934F93BF93AF939F938F9381E4AA
:1013200091E09F938F931F9280E48F93CE0101965B
:101330009F938F930E9422116C010FB6F894DEBF29
:101340000FBECDBF0197CF97C8F482EF93E00E9404
:10135000B9028C159D0594F0A601BE016F5F7F4F09
:1013600082EF93E00E948C02F894EF1451F1809187
:10137000CA018F5F87708093CA017894C05CDF4F89
:101380000FB6F894DEBF0FBECDBFDF91CF911F9196
:101390000F91FF90EF90DF90CF9008950115110508
:1013A00069F31F930F9388E691E09F938F931F92A9
:1013B00080E48F93CE0101969F938F930E94221118
:1013C000BBCF8091870190918801801B910B9093F6
:1013D000880180938701D1CF1F920F920FB60F9291
:1013E00011242F933F938F939F93AF93BF9380913B
:1013F000E5039091E603A091E703B091E8033091F3
:10140000E40323E0230F2D3758F50196A11DB11DEC
:101410002093E4038093E5039093E603A093E7030E
:10142000B093E8038091E9039091EA03A091EB0364
:10143000B091EC030196A11DB11D8093E903909337
:10144000EA03A093EB03B093EC03BF91AF919F919C
:101450008F913F912F910F900FBE0F901F90189575
:1014600026E8230F0296A11DB11DD2CF1F920F9225
:101470000FB60F9211242F933F934F935F936F9367
:101480007F938F939F93AF93BF93EF93FF93E091DD
:101490000201F09103010995FF91EF91BF91AF9186
:1014A0009F918F917F916F915F914F913F912F917C
:1014B0000F900FBE0F901F9018951F920F920FB6AE
:1014C0000F9211242F933F934F935F936F937F93CA
:1014D0008F939F93AF93BF93EF93FF93E09100019E
:1014E000F09101010995FF91EF91BF91AF919F910B
:1014F0008F917F916F915F914F913F912F910F90BD
:101500000FBE0F901F9018951F920F920FB60F925B
:1015100011242F933F934F935F936F937F938F93F8
:101520009F93AF93BF93EF93FF9382EF93E00E945B
:101530000A03FF91EF91BF91AF919F918F917F919E
:101540006F915F914F913F912F910F900FBE0F9030
:101550001F9018951F920F920FB60F9211242F9380
:101560008F939F93EF93FF93E0910204F091030414
:101570008081E0910804F091090482FD1BC09081F4
:1015800080910B048F5F8F7320910C04821741F0C0
:10159000E0910B04F0E0EE50FC4F958F80930B042C
:1015A000FF91EF919F918F912F910F900FBE0F9010
:1015B0001F9018958081F4CF1F920F920FB60F9253
:1015C00011240F931F932F933F934F935F936F9328
:1015D0007F938F939F93AF93BF93CF93EF93FF939B
:1015E000C3B1C170809104018C1789F00E9466021A
:1015F000C0930401C1111FC06093830170938401E3
:10160000809385019093860181E080938201FF9110
:10161000EF91CF91BF91AF919F918F917F916F91FA
:101620005F914F913F912F911F910F910F900FBE9E
:101630000F901F90189520918201222341F3109260
:1016400082012091C9012F5FA22FA7702091CA01AA
:101650002A1310C080918701909188010196B9F2F8
:1016600080918701909188010196909388018093E1
:101670008701CDCFE091C90128E0E29FF00111245C
:10168000E757FE4F608371838283938300918301C8
:10169000109184012091850130918601E091C9016A
:1016A000AB01BC01401B510B620B730B88E0E89F40
:1016B000F0011124E757FE4F4483558366837783F7
:1016C000A093C901A4CFCF93DF93CDB7DEB7C85A9B
:1016D000D1090FB6F894DEBF0FBECDBF789484B5A4
:1016E000826084BD84B5816084BD85B5826085BD1E
:1016F00085B5816085BD80916E00816080936E00AC
:10170000109281008091810082608093810080919D
:10171000810081608093810080918000816080934E
:1017200080008091B10084608093B1008091B0000E
:1017300081608093B00080917A00846080937A0009
:1017400080917A00826080937A0080917A00816033
:1017500080937A0080917A00806880937A0010925A
:10176000C100E0910204F091030412E01083E091C3
:10177000FE03F091FF031082E0910004F091010458
:1017800080E1808310920A04E0910604F09107043E
:1017900086E08083E0910404F091050480818061FB
:1017A0008083E0910404F091050480818860808347
:1017B000E0910404F0910504808180688083E091C9
:1017C0000404F091050480818F7D808360E082E0D5
:1017D0000E94350260E084E00E94350261E085E00D
:1017E0000E94350261E086E00E94350260E088E0F8
:1017F0000E943502D89A83B1817080930401809150
:101800006B00816080936B008091680081608093A1
:101810006800E1EFF3E0E491F0E0EE0FFF1FE85223
:10182000FC4F859194919093790280937802E2EF36
:10183000F3E0E491F0E0EE0FFF1FE852FC4F8591DA
:1018400094919093770280937602E5E0F4E0E4913E
:10185000E0937502E6E0F4E0E491E093740280E046
:101860000E94EF0380E00E94CE0310928B02109240
:101870008A021092890286E598E090930101809394
:10188000000180916900836080936900E89A88E391
:1018900092E00E94310982E092E00E9431098DECD1
:1018A00091E00E94310901E000938C0210928E02B7
:1018B000109306010093080110928B0285E080933B
:1018C0007C0285E991E00E9431098FE691E00E9457
:1018D000310900938C020093080110928E0210933C
:1018E000060180E691E00E947E036AE070E080914C
:1018F0008B020E94EF0886E591E00E947E036AE079
:1019000070E080918A020E94EF088CE491E00E94CE
:101910007E036AE070E0809189020E94EF080E94D5
:10192000290983E391E00E947E036AE070E081E090
:1019300090E00E94F60886E291E00E947E036AE051
:1019400070E081E090E00E94F6088EE191E00E9454
:101950007E036AE070E090E080E00E943D098CE048
:1019600091E00E947E0389E091E00E94310986EFB8
:1019700090E00E947E0360E170E08EE790E00E94BC
:101980003D0980EE90E00E947E036AE070E090E006
:1019900080E00E943D098AEC90E00E947E036AE0AC
:1019A00070E090E080E00E943D0986EB90E00E94AC
:1019B0007E036AE070E090E080E00E943D0984EAE6
:1019C00090E00E947E03E0918C02F0E0ED5CFE4F1F
:1019D00060E170E080810E94EF088CE990E00E9455
:1019E0007E03E0910801F0E0E75CFE4F80816AE051
:1019F00070E0082E000C990B0E94F60886E990E032
:101A00000E947E036AE070E080918E020E94EF08DF
:101A100088E890E00E947E036AE070E08091060111
:101A20000E94EF088DE790E00E947E034AE068EE96
:101A300070E880E090E00E94A1080E94290988E6F1
:101A400090E00E947E036AE070E083E090E00E94F4
:101A50003D09CE010196C955DF4F99838883C75A46
:101A6000D04040E0242E40E0342EF8940091E3036F
:101A70008090DF039090E003A090E103B090E20338
:101A8000789411E04C9911C010E01093DE0301111D
:101A90001CC00E9449092114310439F30E94F60246
:101AA0008823F9F20E940000DCCF8091DE038111CF
:101AB000ECCF8091DC039091DD0301969093DD03E0
:101AC0008093DC030E946602E0CF0E9466026819E0
:101AD00079098A099B096039714081059105D8F21D
:101AE000F8941091E3032091090130910A018CE9E7
:101AF00092E0F3E02C333F0711F08CE393E09093F6
:101B00000A01809309011092E3037894FE01319653
:101B100090E080E0811738F4D901A80FB91F4C91EB
:101B200041930196F7CF1092980210929902109269
:101B30009A0210929B0210929702109293021092B6
:101B40009402109295021092960210928F021092B7
:101B5000900210929102109292021092ED03109254
:101B6000EE031092EF031092F00387EF810F86319E
:101B700008F0B7C080917A0291E0811190E021E0F5
:101B8000280F233008F07AC020937A0290939702AE
:101B90008111A7C07501640128EEC20E20E8D21E93
:101BA000E11CF11C0E9466022B013C01D701C60119
:101BB00084199509A609B709B7FD02C026013701A6
:101BC000D301C20188199909AA09BB09809393021C
:101BD00090939402A0939502B093960280918E0206
:101BE00080938D02E0910801F0E0E75CFE4F908168
:101BF00090930701811145C081E080930501E09138
:101C00000601F0E0EB5CFE4FE08110927B02CA55CA
:101C1000DF4F1882C65AD040E093880210928702A4
:101C2000E73089F537E0C32ED12C8EE790E00C2CFD
:101C300002C0959587950A94E2F781700E94D007BB
:101C400081E0C81AD10888F74AE062E271E087E0D3
:101C50000E94C1070E94230882E2C82E81E0D82E8C
:101C6000BE016A557F4FF60181916F010E94DD0729
:101C7000FCE2CF16F1E0DF0699F71EC010927A025F
:101C800085CF82E0BACFEA3078F4F0E0E65BF14F3E
:101C90000C9406115A0E970EAD0EC10ED40EE80E1E
:101CA000070F540E540E380F0E9423080E94230879
:101CB0000E9423080E9423084092980250929902A1
:101CC00060929A0270929B0220E040917C02C301D4
:101CD000B2010E948B041092F1038BEA94E0019709
:101CE000F1F781ED93E00E947E036AE070E0812FBE
:101CF0000E94EF0888EC93E00E947E03CE010196DB
:101D00006C018C2DC955DF4F9881C75AD040891B73
:101D1000811708F0D4C0F60181916F0161E3811150
:101D200001C060E382EF93E00E942C03EACF83E0DE
:101D3000CF55DF4F8883C15AD04041E0BE016F5577
:101D40007F4F81E00E94C1070E942308BE016A55AF
:101D50007F4F83E00E94DD07AFCF8FE1CF55DF4F8C
:101D60008883C15AD04041E0BE016F557F4F82E069
:101D70000E94C1070E942308BE016A557F4F8FE170
:101D8000E9CFCF55DF4F1882C15AD04041E0BE01A4
:101D90006F557F4F83E00E94C1070E942308BE0158
:101DA0006A557F4F80E0D6CF8FE7CF55DF4F8883CE
:101DB000C15AD04041E0BE016F557F4F84E00E9480
:101DC000C1070E942308BE016A557F4F8FE7C2CF2B
:101DD00047E06CE271E085E00E94C1070E942308A1
:101DE0002CE2C22E21E0D22EBE016A557F4FF601B1
:101DF00081916F010E94DD07F3E3CF16F1E0DF066A
:101E000099F7CE018A559F4F0E94410855CF88E02F
:101E10008093870283E080937D0287E080937E0237
:101E200010927F0282E0809380021092810283E40C
:101E30008093820210928302109284020E942308EF
:101E4000BE016A557F4F83E00E94DD079CE2C92EE8
:101E500091E0D92EBE016A557F4FF60181916F0145
:101E60000E94DD07F3E3CF16F1E0DF0699F7C9CF53
:101E700085E0EBE0F1E0DE01AF55BF4F01900D9240
:101E80008A95E1F745E0BE016F557F4F89E00E94DA
:101E9000C1070E942308CE018F559F4F6C015C0142
:101EA00095E0A90EB11CBE016A557F4FF6018191E4
:101EB0006F010E94DD07AC14BD04A9F7FDCE8FEBC6
:101EC00093E00E947E03E0918C02F0E0ED5CFE4F17
:101ED00060E170E080810E94EF0883EB93E00E9454
:101EE0007E0381E090918E02911101C080E0819586
:101EF000E0918C02F0E0ED5CFE4F908160E170E0DB
:101F000089270E94EF088FE993E00E947E03E09109
:101F10000801F0E0E75CFE4F80816AE070E0082E87
:101F2000000C990B0E94F60883E993E00E947E035F
:101F30006AE070E080918E020E94EF0885E893E0ED
:101F40000E947E036AE070E0809106010E94EF0823
:101F500089E793E00E947E036AE070E081E090E010
:101F60000E94F6088CE693E00E947E0390918E0218
:101F700080910501992329F0882319F093E0981B9B
:101F8000892F6AE070E00E94EF0884E693E00E94E7
:101F90007E036AE070E090E080E00E94F6088FE740
:101FA00092E00E947E036AE070E0809188020E94C5
:101FB000EF0885E792E00E947E0380918702D12C92
:101FC00081119CC08DE20E94790388E593E00E9414
:101FD0007E034AE068EE70E880E090E00E94A1088D
:101FE00086E593E00E947E036091930270919402D3
:101FF00080919502909196024AE00E94A10884E4A3
:1020000093E00E947E0360918F0270919002809114
:102010009102909192024AE00E94A1088CE293E022
:102020000E947E036091ED037091EE038091EF03B7
:102030009091F0034AE00E94A1088FE193E00E9492
:102040007E03809197026AE070E090E00E94F608BB
:1020500088E193E00E947E036AE070E080918B0249
:102060000E94EF088EE093E00E947E036AE070E039
:1020700080918A020E94EF0884E093E00E947E0330
:102080006AE070E0809189020E94EF088CEF92E094
:102090000E947E036AE070E081E090E00E94F60812
:1020A0008090980290909902A0909A02B0909B0222
:1020B00081149104A104B10449F08EEE92E00E94D3
:1020C0007E034AE0C501B4010E94A1088091DC03AF
:1020D0009091DD03892B41F58CEC92E00E947E0308
:1020E0000E9429091092DD031092DC031F3108F4CD
:1020F000D0CC8EE892E00E943109CBCC809187024F
:10210000D81608F062CFED2DF0E0E358FD4F0081C6
:10211000003118F480E30E94790360E170E0802FC1
:102120000E94EF08D394EACF8DE50E947903D8CFBF
:10213000E2EFF3E01382128288EE93E0A0E0B0E0D9
:1021400084839583A683B78384E191E09183808320
:1021500085EC90E09587848784EC90E0978786876C
:1021600080EC90E0918B808B81EC90E0938B828B64
:1021700082EC90E0958B848B86EC90E0978B868B3D
:10218000118E128E138E148E0895A1E21A2EAA1BA0
:10219000BB1BFD010DC0AA1FBB1FEE1FFF1FA21717
:1021A000B307E407F50720F0A21BB30BE40BF50B14
:1021B000661F771F881F991F1A9469F7609570959D
:1021C000809590959B01AC01BD01CF010895052E2E
:1021D00097FB1EF400940E94FE1057FD07D00E944A
:1021E000C51007FC03D04EF40C94FE10509540959A
:1021F000309521953F4F4F4F5F4F089590958095B3
:10220000709561957F4F8F4F9F4F0895EE0FFF1F81
:102210000590F491E02D0994A29FB001B39FC001F5
:10222000A39F700D811D1124911DB29F700D811D02
:102230001124911D08950E940C11B7FF0895821B6F
:10224000930B0895AEE0B0E0E8E2F1E10C94DE1308
:102250000D891E898F89988D26E02C831A83098326
:1022600097FF02C080E090E801979E838D83AE01C6
:10227000455E5F4F698D7A8DCE0101960E945211A5
:102280004D815E8157FD0AC02F8138854217530763
:102290000CF49A01020F131FF80110822E96E4E04D
:1022A0000C94FA13ABE0B0E0E8E5F1E10C94D01344
:1022B0007C013B018A01FC0117821682838181FF28
:1022C000C8C1CE0101965C01F7019381F30193FD32
:1022D000859193FF81913F01882309F453C1853291
:1022E00039F493FD859193FF81913F01853229F463
:1022F000B70190E00E944213E7CF912C212C312CA2
:10230000FFE1F31538F08B3211F190F4803209F1CE
:10231000833229F137FC3CC020ED280F2A3050F5DC
:1023200036FE20C08AE0989E200D1124922E06C011
:102330008D3291F0803371F7689430F8F30193FD9A
:10234000859193FF81913F018111DACF21C068947B
:1023500031F8689432F8F2CF689433F8EFCF68948C
:1023600034F8ECCFEAE02E9E200D1124222E689442
:1023700035F8E4CF8E3229F436FC04C1689436F87F
:10238000DDCF8C3619F4689437F8D8CF8836B1F29F
:10239000982F9F7D95549330E0F08336A1F18337D9
:1023A000C1F1833509F063C02801F2E04F0E511CE2
:1023B000F801C080D180692D70E036FC02C06FEF5B
:1023C0007FEFC6010E942C134C01689437F88201FC
:1023D0000AC00C5F1F4FFFE3F98388248394912C7C
:1023E0006501E89437F833FE2DC0522C8114910416
:1023F00071F5552009F468CFB70180E290E00E94A2
:1024000042135A94F6CFF801808189830E5F1F4FE3
:10241000E4CF2801F2E04F0E511CF801C080D180BA
:10242000692D70E036FC02C06FEF7FEFC6010E949D
:1024300037134C018201D5CFB70180E290E00E94B2
:1024400042132A942814190409F0B0F7CECFF601EC
:1024500037FC859137FE81916F01B70190E00E94B2
:10246000421351105A94F1E08F1A9108BFCF84366D
:1024700019F0893609F077C0F80137FE6BC060812A
:102480007181828193810C5F1F4FF32DFF763F2E68
:1024900097FF09C090958095709561957F4F8F4FFC
:1024A0009F4F689437F82AE030E0A5010E9472132C
:1024B000C82ECA188C2C432C36FE0CC0E89440F869
:1024C000C91440F434FE05C032FC03C0F32DFE7E77
:1024D0004F2E892C44FE95C0FE01EC0DF11D80812C
:1024E000803309F087C0242D297E422E842D8870E8
:1024F000582E43FC95C040FE8FC09C2C821418F4CB
:102500002C0C922C981844FE91C0B70180E390E007
:102510000E94421342FE09C088E790E041FE02C0DB
:1025200088E590E0B7010E944213C91408F48AC0FC
:10253000CA94D12C9FEFC91AD90ACA0CDB1CF60128
:1025400082916F01B70190E00E944213AC14BD0468
:10255000B1F74FCF60817181072E000C880B990B6A
:102560000E5F1F4F92CFD32CE894D4F82AE030E0CE
:10257000853739F1232D297FD22E8F3601F148F48A
:102580008835A9F0F701868197812B96E2E10C94BA
:10259000EC13803749F08837A9F7D4FE02C068945D
:1025A000D2F820E130E00DC06894D4F8F6CF34FEC4
:1025B00003C0822F8660D82E20E132E002C028E0DE
:1025C00030E0F801D7FE0FC0608171818281938174
:1025D0000C5F1F4FA5010E947213C82ECA183D2C14
:1025E000E89437F867CF6081718190E080E00E5FFA
:1025F0001F4FF0CF42FC02C0839478CF8394839422
:1026000075CF842D867809F471CFF6CFB70180E2BB
:1026100090E00E94421383948214C0F3512C73CF34
:10262000522C5818821408F46ECFF8CF842D867877
:1026300009F47BCF8BE241FE80E247FC8DE2B701DB
:1026400090E071CFB70180E390E00E9442139A942A
:102650006CCF8FEF9FEF99CFFC01059061507040D8
:102660000110D8F7809590958E0F9F1F0895FC015B
:102670006150704001900110D8F7809590958E0FB1
:102680009F1F08950F931F93CF93DF93182F092F48
:10269000EB018B8181FD09C01FEF0FEF812F902F80
:1026A000DF91CF911F910F91089582FF14C02E8169
:1026B0003F818C819D81281739073CF4E881F9819D
:1026C000CF0101969983888310838E819F81019623
:1026D0009F838E83E3CFE885F985812F0995892B28
:1026E000A1F3DACFFA01AA27283051F1203181F184
:1026F000E8946F936E7F6E5F7F4F8F4F9F4FAF4F0A
:10270000B1E03ED0B4E03CD0670F781F891F9A1F1C
:10271000A11D680F791F8A1F911DA11D6A0F711DD0
:10272000811D911DA11D20D009F468943F912AE0DC
:10273000269F11243019305D3193DEF6CF010895C4
:10274000462F4770405D4193B3E00FD0C9F7F6CFF5
:10275000462F4F70405D4A3318F0495D31FD4052BD
:10276000419302D0A9F7EACFB4E0A6959795879553
:1027700077956795BA95C9F7009761057105089532
:102780009B01AC010A2E06945795479537952795DE
:10279000BA95C9F7620F731F841F951FA01D089576
:1027A0002F923F924F925F926F927F928F929F9261
:1027B000AF92BF92CF92DF92EF92FF920F931F934F
:1027C000CF93DF93CDB7DEB7CA1BDB0B0FB6F89400
:1027D000DEBF0FBECDBF09942A88398848885F8440
:1027E0006E847D848C849B84AA84B984C884DF80B1
:1027F000EE80FD800C811B81AA81B981CE0FD11D95
:102800000FB6F894DEBF0FBECDBFED010895F8946A
:10281000FFCF8B028B02010201FE013C030000FF8F
:10282000FF96000000002C038C02B9029903EA0213
:10283000C802DC0200070002014300000201070099
:102840000200430000817E00010709FCFE00020433
:102850000D0A00232053544F434B5F59454C4C4FB6
:102860005720726973655F75733D256C75206C6FB9
:10287000775F75733D256C750A00232053544F43D1
:102880004B5F59454C4C4F575F44524F5053202596
:04289000750A0000C5
:107E0000112484B714BE81FFF0D085E080938100F7
:107E100082E08093C00088E18093C10086E0809377
:107E2000C20080E18093C4008EE0C9D0259A86E02C
:107E300020E33CEF91E0309385002093840096BBD3
:107E4000B09BFECF1D9AA8958150A9F7CC24DD24C4
:107E500088248394B5E0AB2EA1E19A2EF3E0BF2EE7
:107E6000A2D0813461F49FD0082FAFD0023811F036
:107E7000013811F484E001C083E08DD089C08234E0
:107E800011F484E103C0853419F485E0A6D080C0E4
:107E9000853579F488D0E82EFF2485D0082F10E0AE
:107EA000102F00270E291F29000F111F8ED06801E7
:107EB0006FC0863521F484E090D080E0DECF843638
:107EC00009F040C070D06FD0082F6DD080E0C81688
:107ED00080E7D80618F4F601B7BEE895C0E0D1E017
:107EE00062D089930C17E1F7F0E0CF16F0E7DF06D8
:107EF00018F0F601B7BEE89568D007B600FCFDCFD4
:107F0000A601A0E0B1E02C9130E011968C91119780
:107F100090E0982F8827822B932B1296FA010C0160
:107F200087BEE89511244E5F5F4FF1E0A038BF0790
:107F300051F7F601A7BEE89507B600FCFDCF97BE46
:107F4000E89526C08437B1F42ED02DD0F82E2BD052
:107F50003CD0F601EF2C8F010F5F1F4F84911BD097
:107F6000EA94F801C1F70894C11CD11CFA94CF0C13
:107F7000D11C0EC0853739F428D08EE10CD085E9AC
:107F80000AD08FE07ACF813511F488E018D01DD067
:107F900080E101D065CF982F8091C00085FFFCCF94
:107FA0009093C60008958091C00087FFFCCF809118
:107FB000C00084FD01C0A8958091C6000895E0E648
:107FC000F0E098E1908380830895EDDF803219F02E
:107FD00088E0F5DFFFCF84E1DECF1F93182FE3DFCA
:107FE0001150E9F7F2DF1F91089580E0E8DFEE27F6
:047FF000FF270994CA
:027FFE00040479
:00000001FF
